{
  "contractName": "DoorLock",
  "abi": [
    {
      "inputs": [],
      "stateMutability": "nonpayable",
      "type": "constructor"
    },
    {
      "anonymous": false,
      "inputs": [
        {
          "indexed": false,
          "internalType": "bool",
          "name": "newState",
          "type": "bool"
        }
      ],
      "name": "DoorStateChanged",
      "type": "event"
    },
    {
      "inputs": [],
      "name": "DoorState",
      "outputs": [
        {
          "internalType": "bool",
          "name": "",
          "type": "bool"
        }
      ],
      "stateMutability": "view",
      "type": "function",
      "constant": true
    },
    {
      "inputs": [],
      "name": "owner",
      "outputs": [
        {
          "internalType": "address",
          "name": "",
          "type": "address"
        }
      ],
      "stateMutability": "view",
      "type": "function",
      "constant": true
    },
    {
      "inputs": [
        {
          "internalType": "address",
          "name": "newOwner",
          "type": "address"
        }
      ],
      "name": "transferOwnership",
      "outputs": [],
      "stateMutability": "nonpayable",
      "type": "function"
    },
    {
      "inputs": [],
      "name": "toggleDoor",
      "outputs": [],
      "stateMutability": "nonpayable",
      "type": "function"
    }
  ],
  "bytecode": "0x608060405234801561001057600080fd5b50336000806101000a81548173ffffffffffffffffffffffffffffffffffffffff021916908373ffffffffffffffffffffffffffffffffffffffff16021790555060008060146101000a81548160ff0219169083151502179055506104578061007a6000396000f3fe608060405234801561001057600080fd5b506004361061004c5760003560e01c80634859598b1461005157806348d0cf0d1461006f5780638da5cb5b14610079578063f2fde38b14610097575b600080fd5b6100596100b3565b60405161006691906102a9565b60405180910390f35b6100776100c6565b005b6100816101ad565b60405161008e9190610305565b60405180910390f35b6100b160048036038101906100ac9190610351565b6101d6565b005b600060149054906101000a900460ff1681565b3373ffffffffffffffffffffffffffffffffffffffff166100e56101ad565b73ffffffffffffffffffffffffffffffffffffffff161461013b576040517f08c379a000000000000000000000000000000000000000000000000000000000815260040161013290610401565b60405180910390fd5b600060149054906101000a900460ff1615600060146101000a81548160ff0219169083151502179055507f1a10c88e725807742607b5d454f60d1a8b7dec8bbd65c77d8b550f6944fbb18d600060149054906101000a900460ff166040516101a391906102a9565b60405180910390a1565b60008060009054906101000a900473ffffffffffffffffffffffffffffffffffffffff16905090565b3373ffffffffffffffffffffffffffffffffffffffff166101f56101ad565b73ffffffffffffffffffffffffffffffffffffffff161461024b576040517f08c379a000000000000000000000000000000000000000000000000000000000815260040161024290610401565b60405180910390fd5b806000806101000a81548173ffffffffffffffffffffffffffffffffffffffff021916908373ffffffffffffffffffffffffffffffffffffffff16021790555050565b60008115159050919050565b6102a38161028e565b82525050565b60006020820190506102be600083018461029a565b92915050565b600073ffffffffffffffffffffffffffffffffffffffff82169050919050565b60006102ef826102c4565b9050919050565b6102ff816102e4565b82525050565b600060208201905061031a60008301846102f6565b92915050565b600080fd5b61032e816102e4565b811461033957600080fd5b50565b60008135905061034b81610325565b92915050565b60006020828403121561036757610366610320565b5b60006103758482850161033c565b91505092915050565b600082825260208201905092915050565b7f4f776e65727368697020417373657274696f6e3a2043616c6c6572206f66207460008201527f68652066756e6374696f6e206973206e6f7420746865206f776e65722e000000602082015250565b60006103eb603d8361037e565b91506103f68261038f565b604082019050919050565b6000602082019050818103600083015261041a816103de565b905091905056fea2646970667358221220661e4b107d0dcc358204e8b3ac14373f3dcebc6496d3056da0c5a5e3aa6b8a5a64736f6c63430008130033",
  "immutableReferences": {},
  "source": "// SPDX-License-Identifier: MIT\npragma solidity >=0.4.22 <0.9.0;\n\nimport './Ownable.sol';\n\n/**\n * @title Simple door lock\n */\ncontract DoorLock is Ownable\n{\n    // open = true; closed = false\n    bool public DoorState;\n    \n    constructor()\n    {\n        DoorState = false;\n    }\n\n    event DoorStateChanged (bool newState);\n    \n    function toggleDoor() public onlyOwner()\n    {\n        DoorState = !DoorState;\n        emit DoorStateChanged(DoorState);\n    }\n}",
  "sourcePath": "/Users/jakobbauer/Projects/Blockchain/Fachreferat/DoorLockContractTruffle/contracts/DoorLock.sol",
  "compiler": {
    "name": "solc",
    "version": "0.8.19+commit.7dd6d404.Emscripten.clang"
  },
  "schemaVersion": "3.4.13",
  "updatedAt": "2023-03-19T13:22:27.861Z",
  "networkType": "ethereum",
  "devdoc": {
    "kind": "dev",
    "methods": {},
    "title": "Simple door lock",
    "version": 1
  },
  "userdoc": {
    "kind": "user",
    "methods": {},
    "version": 1
  }
}