{
  "contractName": "DoorLock",
  "abi": [
    {
      "inputs": [],
      "stateMutability": "nonpayable",
      "type": "constructor"
    },
    {
      "anonymous": false,
      "inputs": [
        {
          "indexed": false,
          "internalType": "bool",
          "name": "newState",
          "type": "bool"
        }
      ],
      "name": "DoorStateChanged",
      "type": "event"
    },
    {
      "inputs": [],
      "name": "DoorState",
      "outputs": [
        {
          "internalType": "bool",
          "name": "",
          "type": "bool"
        }
      ],
      "stateMutability": "view",
      "type": "function",
      "constant": true
    },
    {
      "inputs": [],
      "name": "owner",
      "outputs": [
        {
          "internalType": "address",
          "name": "",
          "type": "address"
        }
      ],
      "stateMutability": "view",
      "type": "function",
      "constant": true
    },
    {
      "inputs": [
        {
          "internalType": "address",
          "name": "newOwner",
          "type": "address"
        }
      ],
      "name": "transferOwnership",
      "outputs": [],
      "stateMutability": "nonpayable",
      "type": "function"
    },
    {
      "inputs": [],
      "name": "openDoor",
      "outputs": [],
      "stateMutability": "nonpayable",
      "type": "function"
    },
    {
      "inputs": [],
      "name": "closeDoor",
      "outputs": [],
      "stateMutability": "nonpayable",
      "type": "function"
    }
  ],
  "bytecode": "0x608060405234801561001057600080fd5b50336000806101000a81548173ffffffffffffffffffffffffffffffffffffffff021916908373ffffffffffffffffffffffffffffffffffffffff16021790555060008060146101000a81548160ff0219169083151502179055507f1a10c88e725807742607b5d454f60d1a8b7dec8bbd65c77d8b550f6944fbb18d600060149054906101000a900460ff166040516100a991906100d1565b60405180910390a16100ec565b60008115159050919050565b6100cb816100b6565b82525050565b60006020820190506100e660008301846100c2565b92915050565b610534806100fb6000396000f3fe608060405234801561001057600080fd5b50600436106100575760003560e01c80634859598b1461005c5780638da5cb5b1461007a578063d19525cf14610098578063db0e127a146100a2578063f2fde38b146100ac575b600080fd5b6100646100c8565b6040516100719190610386565b60405180910390f35b6100826100db565b60405161008f91906103e2565b60405180910390f35b6100a0610104565b005b6100aa6101db565b005b6100c660048036038101906100c1919061042e565b6102b3565b005b600060149054906101000a900460ff1681565b60008060009054906101000a900473ffffffffffffffffffffffffffffffffffffffff16905090565b3373ffffffffffffffffffffffffffffffffffffffff166101236100db565b73ffffffffffffffffffffffffffffffffffffffff1614610179576040517f08c379a0000000000000000000000000000000000000000000000000000000008152600401610170906104de565b60405180910390fd5b60008060146101000a81548160ff0219169083151502179055507f1a10c88e725807742607b5d454f60d1a8b7dec8bbd65c77d8b550f6944fbb18d600060149054906101000a900460ff166040516101d19190610386565b60405180910390a1565b3373ffffffffffffffffffffffffffffffffffffffff166101fa6100db565b73ffffffffffffffffffffffffffffffffffffffff1614610250576040517f08c379a0000000000000000000000000000000000000000000000000000000008152600401610247906104de565b60405180910390fd5b6001600060146101000a81548160ff0219169083151502179055507f1a10c88e725807742607b5d454f60d1a8b7dec8bbd65c77d8b550f6944fbb18d600060149054906101000a900460ff166040516102a99190610386565b60405180910390a1565b3373ffffffffffffffffffffffffffffffffffffffff166102d26100db565b73ffffffffffffffffffffffffffffffffffffffff1614610328576040517f08c379a000000000000000000000000000000000000000000000000000000000815260040161031f906104de565b60405180910390fd5b806000806101000a81548173ffffffffffffffffffffffffffffffffffffffff021916908373ffffffffffffffffffffffffffffffffffffffff16021790555050565b60008115159050919050565b6103808161036b565b82525050565b600060208201905061039b6000830184610377565b92915050565b600073ffffffffffffffffffffffffffffffffffffffff82169050919050565b60006103cc826103a1565b9050919050565b6103dc816103c1565b82525050565b60006020820190506103f760008301846103d3565b92915050565b600080fd5b61040b816103c1565b811461041657600080fd5b50565b60008135905061042881610402565b92915050565b600060208284031215610444576104436103fd565b5b600061045284828501610419565b91505092915050565b600082825260208201905092915050565b7f4f776e65727368697020417373657274696f6e3a2043616c6c6572206f66207460008201527f68652066756e6374696f6e206973206e6f7420746865206f776e65722e000000602082015250565b60006104c8603d8361045b565b91506104d38261046c565b604082019050919050565b600060208201905081810360008301526104f7816104bb565b905091905056fea26469706673582212202068c21b12c82be380358ee047aee9807217335b98774415493c081db755aa1764736f6c63430008130033",
  "immutableReferences": {},
  "source": "// SPDX-License-Identifier: MIT\npragma solidity >=0.4.22 <0.9.0;\n\nimport './Ownable.sol';\n\n/**\n * @title Simple door lock\n */\ncontract DoorLock is Ownable\n{\n    // open = true; closed = false\n    bool public DoorState;\n    \n    constructor()\n    {\n        DoorState = false;\n        emit DoorStateChanged(DoorState);\n    }\n\n    event DoorStateChanged (bool newState);\n    \n    function openDoor() public onlyOwner()\n    {\n        DoorState = true;\n        emit DoorStateChanged(DoorState);\n    }\n\n    function closeDoor() public onlyOwner()\n    {\n        DoorState = false;\n        emit DoorStateChanged(DoorState);\n    }\n}",
  "sourcePath": "/Users/jakobbauer/Projects/Blockchain/Fachreferat/DoorLockContractTruffle/contracts/DoorLock.sol",
  "compiler": {
    "name": "solc",
    "version": "0.8.19+commit.7dd6d404.Emscripten.clang"
  },
  "schemaVersion": "3.4.13",
  "updatedAt": "2023-03-19T15:36:08.027Z",
  "networkType": "ethereum",
  "devdoc": {
    "kind": "dev",
    "methods": {},
    "title": "Simple door lock",
    "version": 1
  },
  "userdoc": {
    "kind": "user",
    "methods": {},
    "version": 1
  }
}